:20000000003C0120798A0100E1950100E1950100E1950100E1950100E1950100E1950100B5
:1C002000E1950100E1950100E1950100E1950100E1950100E195010069B80000D9
:200040008EB009F00DFEDFF8709B09F1020009F1040115F045FB09F114001BF01FF9DFF834
:200060005C6BDFF85C1BC9F80800002409F11C0041F2883200230490CDE9004615F002FCC5
:20008000DFF8400BDFF8401BDFF840BB0022152300901020D847DFF8381B10200022022360
:2000A0004FF00208D8470FF0BDF8DFF8281B102001220125D847DFF8201B10204FF0FF32C0
:2000C000D84719F0D9F94FF0FF3015F01DFE0320DFF8087B8DF818508DF81C8001218DF866
:2000E0001F0004208DF81E0005208DF82400F248089006AA0020B84707AA01200121B847B8
:200100000DF11F0202200121B8470DF11E0203200121B84708AA04200521B84706F10C001D
:200120001AF0D0FDDFF8B81A06F118021020D84799F80210DFF8ACAA5020D047DFF8A81AEF
:2001400002461020D84799F802105020D047DFF89C1A02461020D847DFF8941A1020FB22E8
:2001600040F64803D847DFF88C1A1020D847DFF8880A12F065F94FF6FD7016F09FFB99F867
:2001800002105020D0470346DFF8700ADFF8701A0422CDE900801020D847DFF8680AC021F6
:2001A0001AF036FEDFF85C0A4FF6FF71C02C02D001531834FAE74FF0FF30002115F02CFD13
:2001C000DFF8F859DFF8404A00214FF0FF32A860DFF8380A2060204619F0D0FCA868DFF842
:2001E000303A2146052218F09BFDDFF828AAA868DFF8243A00229AF800101AF07CFC08A883
:20020000DFF88C5A02300590D9F8040000214FF040424FF0FF330DF0F5FC0028F4D083468F
:2002200000200DF11F01069007A806AA18F0E5F9002840F02E83BDF81C00102840F02183BF
:2002400099F802009DF81F10814240F01A83DDF818804FF6FF70B8F80010814200F013838D
:20026000080AC9B2912900F0D380B02900F0FF80D02940F0068398F80210072900F21E8197
:20028000DFE811F008005B015B015B015B016501B5011B02002840F0F4820020ADF823002F
:2002A00018F8060F8DF82000B8F8010098F80510ADF82100B8F803008DF827100821ADF81B
:2002C0002500002008AA0DF0C9FEDFF8F0089AF80010DFF8A8390022013180681BF00CFAED
:2002E00009F10100DFF89819DFF89829DFF8983900901BF007FA000640F05B840B2099F8CE
:200300000120294600230090DFF8800901901BF0F9F9000640F04D841C2099F80120294648
:2003200001230090DFF86C0901901BF0EBF9000640F03F8499F80120DFF85C191020922361
:2003400011F048FF002099F80120DFF82419002300901BF0D7F9000640F02B84DFF82019EC
:20036000DFF82029DFF834391020CDF8009011F031FF000640F01D840B2099F80020294641
:2003800000230090DFF8180901901BF0BBF9000640F00F8499F80020DFF8FC181020922318
:2003A00011F018FF002099F80020DFF8C418002300901BF0A7F9000640F0FB83DFF8FC6755
:2003C0009AF800704046B46817F04CF8DFF8D418DFF8D4380022CDE90010B81DC1B22046F2
:2003E0001AF089FB15F024FA701C012140F6B8320023CDE90010DFF8C81709F1400015F0A0
:2004000041FADFF804080221002219F0B7FB38E23E2864D00F2875D0102800F089800E2827
:2004200040F02F82D8F80810B8F8042042F2300308789A4200F05C8141F205439A4240F008
:200440002082002840F01D82B1F8010091F9038019F03AFE0828C0F0A081DFF860079AF83A
:200460000010DFF8E4370022013180685FE398F804007F280AD07E2816D1DFF840079AF8AA
:20048000001098F80820DFF8C83707E0DFF82C079AF80010B8F80820DFF8B037013180687B
:2004A000009200221BF028F998F8041008F108001BF0BAFDE5E100BF0102030411293CD11F
:2004C000B8F80400ADF8200098F80E008DF82A00B8F80A00002800F0428100204BE198F8E5
:2004E00002000C2840F0CD81DFF8D00698F803209AF800108068002A00F044810131DFF876
:20050000203778E1B8F8040042F23201884240F0B88198F80210DFF8A4061A2940F01281B4
:200520009AF800108068DFF814370022013111E1082000210BF076FCA3E1DFF880069AF8A0
:200540000020511C02328068C9B2D2B2B2E0DFF81417102011F03EFEC1B20446DFF85C06FC
:200560009AF80020DFF804370091911C806800221BF0C2F898F80100002840F06681B8F82A
:200580000A60002000F11801D82900F04381DFF87426105A4FF6FF7290420846F2D1DFF8C7
:2005A00064064718032027F8186C1BF000F9002847F8140C00F02B810821017057F8140C7C
:2005C000A0F8016024201BF0F2F8002847F8100C00F0198157F8141C01220023CDE9002140
:2005E000DFF8DC1541F2707215F04CF90FE1DFF87416102011F0EEFD9AF80010DFF8BC65CD
:200600000446DFF8643600220131B0681BF074F89AF80010B068DFF85436E7B200220097CF
:2006200002311BF069F8B8F80480404619F04CFD082827D0DFF8CC15044600EB400001EBCF
:20064000C0008668AEB130461BF015F910B130461BF015F930461BF034F930461BF0A1F8E6
:20066000DFF8A01504EB440001EBC00040681BF098F8404618F0A0FF404616F0B3FE4046DC
:2006800016F01CF947B904981BF0F9F8DFF878050221012219F072FADFF8D4651AF0E1FBA2
:2006A0001AF0A6FCDFF814059AF80010002203318068C9B21AF086FFE3E0B8F80420DFF846
:2006C0009415102008AB11F085FDDFF8F00486689AF80000871C98F80300C8B1059898F8E4
:2006E000024016F0BFFEDFF87035CDE9004015E0002840F0C680DFF8C404CB7809799AF8FA
:200700000020CDE90031D11D8068DFF834350DE2059816F0A7FEDFF844350090F9B2304684
:2007200000221AF0E8F909F10C0019F035FB002800F0A780044600890FF0C4FB20461BF02C
:2007400030F89EE09AF8002000918068DFF8E834511C00221AF0D0FF42F232004FE00020B8
:20076000ADF82600D8F80600CDF82200B8F80C00ADF828000120DFF8E8148DF82B00102094
:2007800008AA7CE098F80730DFF89824012B2ED0022B25D1DFF8902429E05FFA88F20446F3
:2007A0007F2A00F0B481DFF85C0404EB440C00EBCC0705207B7C591C797407F10C01CA5496
:2007C0007A7CB2FBF0F303EB8303D21A00237A740022052A00F09181885601320344F8E798
:2007E000DFF84C24032BDFF8443408BF1A460231DFF84034009200221AF07EFF0C204146A2
:2008000010F056FA3DE057F8140C1AF0CAFF012007F8040CDFF8A4039AF80070866808F192
:20082000040016F01FFE0090781CDFF848340022C1B230461AF05FF9DFF8CC0301210222C1
:2008400019F09CF904981BF018F814F0F80F0AD1DFF86803807830B9DFF814641AF001FBE5
:200860001AF0C6FB0DE0DFF8104499F800201020214611F0AFFC99F801201020214611F057
:20088000A9FCDDF81880B8F1000F02D040461AF027FFDFF828835FEA4B007FF5B5ACD9F84A
:2008A00008001AF009FE00287FF4AEACD9F808001AF04AF80028F2D00446007801380828F0
:2008C00000F2D780DFE800F0054734571A6F7B697E0060680078022800F09880002840F08C
:2008E000C880002008A916F09DFD9AF800109DF82020D8F80800DFF8EC3392E067682E4645
:20090000C64D787A50B19AF80010D8F80800DFF8A0330022009503311AF0EEFEFA88DFF873
:20092000941310200023009511F054FC3546A0E067683868102800F07B80022800F085802B
:20094000012840F090807A689AF80010D8F80800DFF888337FE060680078010741D4C006BE
:2009600040F187800E201AF071F9002840F0818016F0B8FD7DE061680878032800F27980CD
:200980000979DFE800F002927EA69AF80010D8F80800CF4B0022033146E06068B0F80100E5
:2009A0000FF090FA69E0022008A916F03BFD00285FD10320012108AA10F01CFE59E014F0AE
:2009C00037FF56E060684788384619F07DFB08280FD39AF80010D8F808009B4B002201314F
:2009E00022E00F201AF032F9002842D118F080F93FE0844900EB400001EBC000C07DC0B362
:200A0000AA4910203A4611F0E5FB32E0022008A916F008FD9AF800109DF82020D8F8080013
:200A2000AF4B013100920022C9B21AF064F820E07A689AF80010D8F80800137852880431FF
:200A4000C9B2CDE90032A34B09E07A689AF80010D8F80800A04B12780431C9B20092002227
:200A60001AF049F83868B0F1004F02D078681AF098FE606808B11AF094FE20461AF091FE2D
:200A80000DE70029D8F8080001BF9AF800100331C9B200220FBF8B4B9AF800200091D11C5A
:200AA0001EBFC9B20022864BBFE70029D8F8080001BF9AF800100331C9B200220FBF834B75
:200AC0009AF800200091D11C1EBFC9B200227E4BABE70029D8F8080001BF9AF8001003317A
:200AE000C9B200220FBF754B9AF800200091D11C1EBFC9B20022704B97E73E4619B2052074
:200B000016F8132F91FBF0F106F8011C92B13D4904EB44009AF800204A4B01EBC00090F985
:200B200012102648CDE90081511D806800221AF0E3FDA6E6C9B248B210F11E0F08DB387DC5
:200B400040F002000228E2D000230222022114E0D82906D3387D0228D9D30023012201215C
:200B60000BE0CE2906D3387D0028D0D001230421062202E0022204210223BE461EF8150F3E
:200B8000904202D1B87D0128C1D81E4803920A46CDF808E030F83C0017F038FBDDE902213A
:200BA00001203070107888421CBF0020B8751170ADE71AF0CDF800BFD42100209825002065
:200BC000CD79010040260020DD450100D5210100E5750100319C0100257C0100F515010058
:200BE000E59C010069900100D96C02102D6D02100D520210397F0110A598010014280020A2
:200C0000C9AA000060350020144000204FDA010025DB00009141002061DA010040E20100BD
:200C2000C3DA0100E8DA0100EBDA0100EEDA0100F4DA0100D6DA0100A5DA010076DA010073
:200C4000D6DB0100B9DB0100C0D90100ACDB01009CDB0100F9DC01106EDB010057DB010050
:200C6000D95701108DAD010042DB010024DB0100ED74011032DB01006502021009DB0100FC
:200C8000990101107F930100B82500208427002015D200000C2600201DEF0110D42500205F
:200CA0008F27002021DB010015DB01000D2B0210C9DC0100118A0100B4DC0100A2DC0100D4
:200CC0008CDC010079DC010068DC010058DC010048DC010026DC010012DC0100FFDB0100E9
:200CE000F4DB0100E9DB010038B586B004468DF805104FF6FF720120ADF80220090ADFF8D0
:200D0000C05AADF8000002238DF806108DF8043069462A7820461BF083F9162803D12978AA
:200D200020461BF079F907B030BD3EB504000D461ED0DFF8900A006822461BF069F9FF281F
:200D400015D000200090002301AA294620460EF051FE60B99DF8040000F071F9C00606D561
:200D60009DF8040000F06BF910F0040000D001203EBDFEB5164615244FF6FF7290420D4673
:200D800015D100208DF80400DFF8347A9DF80400F97988421AD23246294600F03EF800B1C0
:200DA00000249DF80400401C8DF80400EEE71BF02BF950B100F09DFB40B99DF804003246FA
:200DC000294600F02AF8002400E014242046FEBD7CB50D46044606214C43164620346A4651
:200DE0000821204618F0C4FCA8B900F078F890B99DF80700002E14BF054320EA0505E9B2FE
:200E0000814206D08DF807506A460821204618F0C3FC012076BD002076BD2DE9FC41064611
:200E200034460623884615465C436A46082104F1200018F09DFC00284ED100F050F8002811
:200E40004AD100F028FA040002D100F01CFA43E0397AE03689062246090E304618F088FC8C
:200E6000002835D1204600F052F85FEA08000ED13A7A9206120E0021204619F09DFA38BBEE
:200E80003A7A92000021204619F09EFF16E0214600F02AF858B9280004D02146002000F0EC
:200EA00023F810B900F00FFC16E0A0F800808178A9420DD085700DB900210180204600F0D1
:200EC00026F8397A89062246090E304618F064FC00F0F9FB012000E00020BDE8F68106220C
:200EE000FF21684619F068BA70B5DFF8D4381D7A002200E0521CD4B2AC4206D231F82460F1
:200F00008642F7D101EB840070BD002070BD10B50021DFF8AC280AE030F82130DB4320F82D
:200F2000213000EB8103491C9C78E4439C70137A9942F1DB10BD2DE9FE4FDFF884480646F2
:200F4000207A0F4691469A4680001AF041F95FEA000803D100F097F90A206EE00C9D0297C8
:200F60004FF0060B37461BFB07FB029A08210BF1200018F011FC8DF80400304600F09AF815
:200F8000227A00F07BF99DF8040000904246217A8906090E06F1E00018F0FEFB009E02994E
:200FA0000643206A082200EBC70019F017FFF5B110220021284619F0FFF9C0B902998879E6
:200FC00000232A4600F001001BF01AF800281CBF9DF93C00002803D0DFF8EC17012008702D
:200FE0002A4610210BF1230018F0D6FB06435FEA090205D01C210BF1210018F0CDFB064373
:201000005FEA0A0205D01C210BF1220018F0C4FB06430D9A4AB110210BF1240018F0BCFB89
:2010200006430EAA00F032F90643A07D08B100F095FA40461AF0D4F8F0B2BDE8FE8FE0B531
:20104000062358436A460821203018F091FB10B99DF807000EBD00200EBDDFF8640700783A
:2010600008210DF06DBA38B50025DFF8544718E0206A06236B4300EBC5022033082198B2CE
:2010800018F076FB58B1206A0622FF2100EBC50019F09AFE206A00EBC5010022CA716D1C8A
:2010A000EDB2E1798D42E3DBA07D10B1BDE8314054E231BDF8B5DFF80817DFF81037C9798F
:2010C0001E680C460A4600E02A46D5B23DB1551ED2B2324412F8017C8742F5D12C46E4B298
:2010E00020464D1E07E01718165C7F7817541A680244401C5670A8421A68F4DBAC4204DA44
:20110000BDE8F840052018F047BBF1BD70B50024DFF8AC5600E0641CE879E3B283420BD2FB
:201120002B6AE6B20622FF2103EBC60019F044F90028F0D0E0B270BDDFF89426117839B195
:20114000DFF8880601680C78204600F013F8204670BD38B500200024DFF8645603E0E0B212
:2011600000F008F8641CEA79E1B2914201D20100F5D032BD2DE9F84F8146CB46062313FB42
:201180000BFB8EB00BF1200501AA0821284618F0EFFA002869D10622FF2101A819F00CF956
:2011A000002862D100F077F85FEA000803D100F06AF80A205BE01C22FF2103A819F004FE85
:2011C0003A7A00F05BF80BF123060AAA1021304618F0CEFA60B91022FF210AA819F0ECF8BE
:2011E00030B99DF80A0001A900F001001AF004FF082200F03FF801AA0821284618F0CCFA5E
:20120000054603AA1C210BF1210018F0C5FA8DF8000003AA1C210BF1220018F0BDFA04461F
:2012200003AA1021304618F0B7FA064603AA10210BF1240018F0B0FA824603AA00F026F822
:201240009DF800100D4325433543397A4AEA0505054389064246090E09F1E00018F09CFADA
:201260000543404619F0BCFF00E0002528460FB0BDE8F08FFF2101A819F0A6BD9200FF219F
:20128000404619F0A1BD042018F038B804210BF1250018F081BADFF82875387A800019F00D
:2012A00097BF2DE9F84187B0FF208DF80000DFF81055E87919F08CFF040003D1FFF7E3FFCD
:2012C0000A2030E01022FF2103A819F07DFDEA79FF21204619F078FD0622FFF7CBFF03AA58
:2012E0001021022018F058FA064603AA1021032018F052FA06436A460121042018F04CFA13
:201300000746E9792246052018F046FA054601AA0621062018F040FA804600F0D4F93E43C0
:201320002E4348EA060008B0BDE8F081DFF890144088097818F0CCB9F0B5A9B006460D4648
:2013400014461AF061FE08B91420A6E0A4220021684619F039FDADF80060DFF86464F0786F
:20136000F17B279A8DF804005208307C8DF8A0004B0801F0010040EA420222F0020203F0D0
:20138000010342EA4302080922F4807200F0010042EA0022480922F4007200F0010042EA8A
:2013A0004022880922F4806200F0010042EA8022890822F0040201F00101707C42EA81024C
:2013C000279202280CBF012000200DF1260778741AF00EFE412807DB707C00B108209DF84C
:2013E000991008438DF89900F07CB8B10121B974202206F188010DF1390019F0EFFC202288
:2014000006F1A8010DF1590019F0E8FC202206F1C8010DF1790019F0E1FC00E0B874707B92
:201420008DF8050090B1DFF8AC73102207F110010DF1060019F0D2FC9DF89900082805D1A1
:20144000102239460DF1160019F0C8FC307B8DF8260030B11022DFF880130DF1270019F0F9
:20146000BDFC307948B1022D18BF032D03D1279840F002002790012100E000219DF899000E
:201480000143B0788DF8991000B1042001438DF89910684621461AF0A7FD29B0F0BD2DE90C
:2014A000FC41154615244FF6FF72904288460ED10027DFF80C63F179F8B2884216D22A4683
:2014C0004146FFF785FC00B100247F1CF3E71AF09BFD50B100F00DF840B99DF804002A462A
:2014E0004146FFF775FC002400E014242046BDE8F681002100910023417901AA01F0010113
:20150000801D0EF077BA70B504460D4606204543082B88B0164603D1300758BF223500D57A
:2015200021351C220021FFF7A6FE01AA1C21284618F01EF980B99DF81E00C01F0A280BD20D
:201540009DF830000090F20801AB02F0010206F0010120461AF044FD08B070BD38B51AF016
:201560003BFD0024964D0FE0286A0622FF2100EBC40018F021FF28B9286A00EBC401002049
:201580001AF026FD641CE4B2E8798442ECDB31BDF0B5924D0646686885B04FF6FF7438B9AE
:2015A000009502238E4A214601201AF00DFD6860696819B30222FF20029200230390019377
:2015C0000DF112072A88009704AB304606F058F860B99DF810009DF8111000EB01221000AE
:2015E00004D0686841893046FFF7C3FB2A886868002321461AF0E4FC686008B9012000E0D3
:20160000002005B0F0BD3EB50C46002501460095002301AA20460EF0EDF938B99DF8040060
:20162000FFF70DFDC00601D401203EBD00203EBD2DE9F0416B4F3C6806468846154603E0DB
:201640002089B04224D02468002CF9D10C2019F0BFFD040019D0268184F80A80002020604E
:20166000E07245B10821284619F05CF8606018B900F029F80AE06060396811B93C6004E0F7
:20168000014608680028FBD10C600CB9152018E01AF092FC08B1002013E00120E0722A46FA
:2016A00041463046FFF748FE04464548C06900281CBF4368002B03D00022002130469847AD
:2016C0002046BDE8F081204619F08ABD38B505464448046803E02089A84204D02468002CA6
:2016E000F9D1012032BDE07A012807D100F05CF820B13348007804210CF022FFE17A491CAB
:20170000E1722846C9B200F002F8002032BD38B5022904462A4D02D003290DD01EE042F6AA
:20172000C921FFF7E1FA02001CBFE869002818D04368B3B105210CE042F6A621FFF7D4FACC
:2017400001001CBFE96900290BD04B684BB102460421204601B0BDE830401847BDE8324099
:2017600000E031BD10B51F4A1468002101E0214624686CB123898342F9D1206800290CBF28
:2017800010600860606808B119F02AFDFFF79BFF002010BD024604201249096819B10B89AD
:2017A0009342FAD1C87A70470E48006828B1006818B1C17A0029FAD170470020704700000B
:2017C000B41C0020680F00208A41002018410020894100207C3E0020AC3E0020C040002030
:2017E000E4E801001C41002038B584B004461AF00BFC0622417901F001018DF80E10811D0D
:2018000002A819F0EBFA0020009000239DF80E1001AA02A80EF0EEF89DF80400FFF7AAFC3C
:201820000546052120461AF0C3FB284605B030BD2DE9F84F012016F001FE012816D1DFF88F
:20184000C476387800211AF0AFFB040004BF002017F054FD00202072201D0FF009F805F0A6
:2018600029F8050003D181201AF09AFB46E301206871072011F0F1FEDFF88C96DFF88C2672
:2018800099F80100401C89F80100A879A0724020397811700DF092FA2860616D4A78206DE5
:2018A000D10620D5816C0A681179032908D0816C0868007903280CBF0120002017F01EFD40
:2018C000206D816C0A6890F86C0002F1080601281CBF002017F012FD216D486F296800F522
:2018E000B060C8604EE0C16E0A681179032908D0C16E0868007903280CBF0120002017F0FD
:20190000FDFC206DC16E0A6890F8980002F1080601281CBF002017F0F1FC216DB5F8743187
:20192000D1F8A0002968DFF8E825C86096F82670DFF8E005032F1FD8DFE807F002061014AE
:20194000CA6802F5B06202E0CA6802F53472CA6005F59A7201881187038811E0C86800F5A9
:20196000355002E0C86800F6B870C86005F59A7011880187138803E0C86800F5B060C8608A
:20198000A5F8743106222868DFF88C75C16801F59071C160B11C3078C0F3801085F82E01D0
:2019A00005F12C0805F5947019F018FA042206F10E0105F1240019F011FA386895F806C097
:2019C00000F10C03042206F10E0103EB4C1019F005FA032206F1120105F1280019F0FEF93C
:2019E0003868AB7900EB4313032206F1120103F1100019F0F3F9707D88F80200022206F130
:201A0000160105F1300019F0E9F9022206F1180105F1320019F0E2F9022206F11A0105F132
:201A2000340019F0DBF9B8F808006884022206F11C0105F1360019F0D1F998F80200B8F878
:201A40000A10400088F802000901B8F80400A8F80A104000A8F8040089B2B8F8060040001D
:201A6000A8F8060003046A8C521CDB0B5A438A4201D280B238B9DFF8A404007880210CF07C
:201A80005FFD3B2133E105F12E0128461AF084FA0520A88128461AF07BFA052206F11E01E7
:201AA00005F1610019F09AF996F82300400988F800001AF069FA688205F59A72618D401A14
:201AC000D08005F1610196F8230000F01F0088F80F0028461AF054FA616D4A78206DD10655
:201AE0004CBF816CC16E0868DFF83464002101714FF01C0AA97930681AFB01F141F62102CD
:201B000042520021AB791AFB03F303445980AA791AFB02F210444160616DDFF808044A782D
:201B2000D1060DD5DFF800148A7851060AD5DFF8FC23138841F20A418B4208BFDFF8F0035C
:201B4000C5F89C01D5F89C11284688473268A97902F10E031AFB01F15854AA7930681AFB31
:201B600002F202440020D0733168A87901F10E021AFB00F0115C88F80D10606D4178CA06A7
:201B80001DD595F8960108B917F0B8FBA97930681AFB01F1014495F89601421E0A74A8798B
:201BA00031681AFB00F00844002141743268A97902F112001AFB01F1002242522BE0A979BA
:201BC00030681AFB01F10144206D90F840200A74A87931681AFB00F00844216D91F84120AB
:201BE0004274206D3168AB79403001F112021AFB03F34188D15205F5CB710078012200F0B7
:201C0000030082400A70226D92F84000800814BF0120022008713168A879DFF818B301F1C7
:201C2000140239681AFB00F301EB4010D050A87931681AFB00F00844BF498161DBF81400AD
:201C40000078C1074CBF1F200F20DBF8141009788A0748BF40F02000DBF8141009784A07A2
:201C600048BF40F04000DBF8141009780A0748BF40F080003968AA7901EB4213187238687E
:201C8000A97900EB41120B2050723968AA7901EB42100421A94A81721078012806D13968C1
:201CA000A87901EB40120121D17207E0DBF824003968AA79407801EB4213D8723968A879B9
:201CC00001EB40121F2111763868AA7900EB421100204876A8790DF08DF9AA793968520165
:201CE0008850AA7939685201885820B90721284617F002FD02E19248AA79016801EB021059
:201D00001AF03AF9A87939688D4B01EB4012196801EB00105060A979386800EB41125168C8
:201D2000C8F83C10AA79520181587C48C8F84410042100780CF004FC616D4A783068D106D8
:201D400048BF02210AD4A9791AFB01F101440A7C02F00302022A14BF04210621B8F8042071
:201D600095F806C04FF4C8738A18698AAA615143B1FBF3F35B1C6B611AFB0CFCD5F800E0BF
:201D80006044DEF80CC040F6C41101FB02C2D21AA2F5A8628260AA7930681AFB02F2831864
:201DA0009A682B689A6000F10C03AA791AFB02F20C309B5C03F0EF038354A87932681AFBA9
:201DC00000F002F10C030C321B5C03F07F031354A87932681AFB00F002F10C030C321B5C09
:201DE00003F0F00343F002031354AB7930681AFB03F31844427B02F0F00242F001024273B0
:201E0000AA7930681AFB02F2024490682B6818613868AB7998F802C000F114026869400086
:201E20005B0111FB0C0000F5F660D05095F8960104280DD13A68A87902F114034FEA401C33
:201E4000143253F80C00AB795B0100F56160D0503868AA7900F114034FEA421C53F80C20B6
:201E6000C5F83421AA7900EB4210C37C03F0F00343F00403C374DBF830003A68AB79006829
:201E800002EB431CB8F8062042436423B2FBF3F35943A1F59661CCF81C103868A97900EBBB
:201EA0004110C27E02F0F00242F00402C276A97930682A681AFB01FA00EB0A01516095F8AD
:201EC000FD00010703D50E2128461AF051F81D49072008702046AA7989F8022015F056FFAA
:201EE00019488178880704D5AA79002120461AF03BF828681549164A41618261BDE8F14F81
:201F000019F0CDBCD50F0020780E0020D70F0020900F00208E0F00209C0E0020C70F002043
:201F2000980E002081010210C00C00209A0F00204DE5011000E30100980C0020CC0F0020AC
:201F4000A40E0020C80F0020200E002051CD0000020480802DE9F04F054687B0A978DFF877
:201F6000E066002710294FF0060A3CD8DFE811F0110063036303630363033C00CC00630379
:201F80006303C7021201FD00180363039902DE025B036878002826D119F0E2FF044619F06C
:201FA000DBFF054619F0D4FF8DF8000022461021022017F0F1FB2A461021032017F0ECFB3B
:201FC0006A460121042017F0E7FB9DF80000012818BF032807D1012019F0B6FF024606213C
:201FE000062017F0D9FB26E368780028FBD195F80CB06C8900900023E97801AA01F0010113
:20200000281D0DF0F7FC00284FF0010872D19DF80400FFF714F88146BBF1080F08BFB846EE
:20202000307A800019F0D4F8050003D1042017F065F900E3707802280CBF012000200090AE
:202040005B469DF804104A462046FFF75CFA1422002102A818F0B8FE9DF804001AFB00F097
:2020600002AA1021243017F083FBA8B91022FF2102A818F0A1F978B99DF804001AFB00FAD2
:2020800006AA04210AF1250017F072FB02AA09F00101204619F054FF317A9DF8040089069B
:2020A0002A46090EE03017F063FB98B92846FEF72EFFBA4609E005EB8000018819B182789D
:2020C000204618F061F80AF1010A317A5FFA8AF08842F0D3B07A30B95FEA897003D5317852
:2020E000204617F0F5FA9DF80400FEF7E3FF284619F076F87078022805D1B8F1000F02D0BD
:20210000204612F0DBFD96E2A888FFF72BFB19F013FF0028F7D1F07D012808D1FFF719F83A
:20212000F279706AF775002118F04EFE17E0307E012803D1FFF7B5F8377610E000240AE089
:20214000706AE5B2415D012904D1E0B2FFF712F8716A4F55641CE0B2F1798842F0D35020E7
:2021600018F0A2F8FEF77FFF65E219F025FF00280CD0F06900281CBF0468002C07D0286976
:2021800000906B7B2A7B6989E81CA04752E26889012145E268780024002840F0DA80A87902
:2021A000C10740F1D6800822002105A818F00CFEA88819F029FF040000F08E806F694FB389
:2021C0000622002107F1110018F0F6F868B310220021384618F0F0F8D0B9387C00F00108A5
:2021E0004FF0000909F1010987F811900020009000230022414607F111000DF0FBFB0028D3
:202200005FFA89F002D10028ECD101E000280CD1002068610622607900F001008DF81A00D4
:20222000A11D05A818F0DAFD1FE06F69EFB1387C00F001008DF81A00062207F1110105A8BA
:2022400018F0CCFD6079012805D10622A11D04F10C0018F0C3FD062207F11101A01D18F02F
:20226000BDFD387C40F002006071A879410720794CBF40F0020000F0FD002071A9790A07FD
:2022800054BF00F0DF0040F020002071A9799DF81B00DFF8B083890801F0010108438DF84B
:2022A0001B004FF0FF09A979C90801F0010140EAC1008DF81B00FF2469691E2779B31022B3
:2022C000684618F08BFD1021684619F031FE4FF0000BDFF874930CE0FFF766FA0028D5D072
:2022E000307804210CF02CF9D0E70BF101005FFA80FB99F80000834510DAD8F8001007FB43
:202300000BF00A5CFF2AF0D0084400F10D011022684618F0F9F90128E7D15C46A1460020C4
:20232000009000239DF81A1004AA05A80DF062FBB9F1FF0F5DD034285BD1707D30B3012810
:2023400057D1A888052119F033FE0124A888FFF709FA68780B2804BFA888FFF745FAF069E3
:2023600000281CBF4368002B0FD06A78A888012198476878002808D1A879C10705D5F36992
:20238000A88822465C680321A0474CE1D8F80000002117FB09F90091002310F80910401C73
:2023A00004AA48440DF026FB18BB9DF81000FEF7E1FEF0B9FEF757FEFEF7A8FE8DF8100056
:2023C000E86800280CBF00210169002201900392029105A9686900902B69AA689DF81000FA
:2023E000FEF7A9FD0446A888FFF7D2F8200046D14BE00020009000239DF81A1004AA05A8B9
:202400000DF0F8FA20B1FEF781FE8DF8100019E06869B8B19DF810001AFB00FA6A4610212B
:202420000AF1230017F0A4F960B91022FF21684617F0C2FF30B99DF81A0005A900F00100C2
:2024400019F0DAFD9DF81000F179884227D2E86800280CBF00210169002201900392029121
:2024600005A9686900902B69AA689DF81000FEF762FD0446A888FFF78BF8200005D09DF831
:202480001000FEF777FEFEF7EEFD200008D1707A0028A8887FF45BAFFFF718F959E71524AA
:2024A00054E7687806281FD1A88819F0ADFDD8B1317D491E032917D8DFE801F0020E081364
:2024C0004179A8880022FFF7B3F80DE00022002140F2094003F0E0F8A888052119F068FD15
:2024E00002E0A888FFF780F9F06900281CBF4368002B03D06A78A888022198479AE0009731
:202500000023E97801AA01F00101281D0DF072FA0028F3D19DF804001AFB00FA05F10C0253
:2025200004210AF1250017F037F983E0F06900281CBF4368002B03D0A88800220021984765
:20254000707810B9A88805216AE0A88819F05CFD040070D0A87AC10712D5009700236179EF
:20256000002201F00101A01D0DF044FA00281EBF60790028012803D0E868C0F3402028B110
:20258000707C022807D1A87A010704D4A888032119F0CAFC4FE06179A88805F1080227E0E8
:2025A0002F7BAD88284619F02FFD040042D019F003FD00283ED100900023617901AA01F01A
:2025C0000101A01D0DF016FA28BB9DF80400FEF736FD07F00C07042F11D0082F0BD00C2F20
:2025E0000FD100F0090109290BD0617900222846FFF71EF81EE010F0090F02D1F5E7C107F1
:20260000F3D501220092A37C9DF8041002462846FEF779FF0EE070780028E6D10521284609
:2026200019F082FC06E0FFF7BFF818B1307804210BF086FF0127384607B0BDE8F08F00BF2A
:20264000B41C0020680F0020844100202DE9F04F85B00D460295044615F8011B8DF8011091
:202660000022DFF8E81488788DF8002004F1660B18F066FD01902C219DF80100DFF8D024B0
:20268000032804F1F40604F5B07A04F59C7704F5C87804F2171900F0E180072800F015828B
:2026A000082818BF092811D00C2800F0D9810F2811D0112800F04681182800F094811A28F4
:2026C00000F059811B2800F07E811CE22946204610F0ACFE17E2707ADFF8788481070AD465
:2026E0000F2089F80200204619F01AFC002872D198F80000DEE12878697800EB01223A829E
:20270000A878E97800EB01227A822879697900EB0122BA82A879E97900EB0122FA82287AB2
:202720003876697AA87A01EB00227A83E87A297B00EB0122BA83687BA97B00EB0122FA83F8
:20274000E87B297C00EB01223A84687CA97C00EB01227A84E87C297D00EB0122BA84687D55
:20276000A97D00EB0122DFF8F003FA8401788A0658BF4FF01A0A13D504F5AA700490798BC7
:202780000391387E029021890191F88A0090BB8A7A8A398A204619F0BFFBE8B14FF01E0ADA
:2027A000707A41070AD40F2089F80200204619F0B7FB00280FD198F800007BE152460F217A
:2027C000204619F0A5FBF88A0090BB8A7A8AA179504613F0ABF874E104F18600798A818065
:2027E0000023BA8AC2800222F98A018102704380A18EC91DABF81E10628E8188B1EB520FF6
:2028000002BFC188A28E914202BF0089E18EB0EB111F21D09BF81000012804BF9BF8110003
:202820000F280CD09BF8150000281CBF9BF811001A2804D00F218BF81A10FE217EE0FC21A9
:20284000204619F095FBF88A0090BB8A7A8A398AA07919F059FB34E110216FE0707AC1079E
:2028600009D431781A200129707002D1FF220D213DE00D2162E000208BF800008BF80600B3
:20288000012232712946082204F1B00019F038FB0146022204F1B80019F032FB04F1A80508
:2028A00001460822284619F02BFB07460821284619F03EFB04F19C0504223946284619F032
:2028C0001FFB0421284619F033FB04F1A00019F013FB04F1980019F00BFBA048018841F02A
:2028E000800101803078012805D1FF220421204619F0FAFAE5E09BF811600F2E18BF142E67
:2029000007D00E2E18BF0C2E03D01A2E18BF162E13D19BF81070204619F0E2FA0421204690
:2029200019F026FB012F06D18BF81A601A2E14BFFD21FB2102E0314600E00421204619F047
:2029400017FBBEE028788AF800001A286B788AF8013040F0D8801068A679431C4E4300209E
:202960009855A379126811FB03F111440871A1799AF80100C0E0A77910682E784F4307449E
:2029800006F01F0317F8210FB60938B17878F040C00703D598F80600042805D120221A2164
:2029A000204619F0B5FA8CE0FB701068A27911FB02F10144204681F82360002118F031FF90
:2029C0000028F0D174E0A37910684B430344D88808B900265E701068A27911FB02F1014465
:2029E000002008716DE069782878884204BF084010F0070F6DD19BF81100162806D198F8FE
:202A00000620A179134600200BF034FD022088F80200012101984177012398F8060098F870
:202A20000A1088F80000BAF81C2019F055FABAF81810814209D3BAF81C2098F80A1098F815
:202A40000000012319F048FA0146AAF82E10012198F8080040F0400088F80800397030E075
:202A6000707E012810D015F8011B31770222294604F5897019F044FA0146022204F58A7064
:202A800019F03EFA012070769BF8060030B93D21012289F8011089F8002012E0F07E002830
:202AA00004BFB07E00280CD1204619F011FA30B9284800784FF480410BF042FD01E0012095
:202AC000F07601218DF8001021E028780F2816D01A2818D1A079136848431844002343709F
:202AE000A079126811FB00F150180371F07A00F0FB00F0721A20A1790BF013F8E1E7707AA7
:202B000000F0FD0070722046029919F0DDF99BF811001A2815D19BF8120017281CBF102843
:202B2000FC280ED19BF81060204619F0D9F9012E03BF1A208BF81A00FB211A21204619F0C0
:202B400017FA9DF8000005B0BDE8F08F780E0020F4400020C70F0020200E00209C0F0020ED
:202B60002DE9FE4F04460020009080460CB916F0C5FB04F1500641F6230037683880A7F80C
:202B8000028002223A737A73694620460BF06CFE08B9072050E2009901B1B860B86820615D
:202BA000DFF89804017884F8B8107068407A14F0D7FA25302076B87387F80F807168087DFC
:202BC000022804BF002016F099FB7068007D012802D10020002104E083280CBF062002201A
:202BE00020213874797404F12405DFF854A4DAF83C0041690868697901EB41010844B0F8E2
:202C000001207A827068417848060AD5607DC10604D5E07F40F04000E07702E040F04000E4
:202C2000607507F15C0904F1300089F80080A97E890001F0040189F80010B866607DC10643
:202C400054D5726851788A060BD500F0FE0060757068417811F0030F03D1E07F00F0FE00B0
:202C6000E077607D19F02CF9A0750023387CA27DC0F38001521C00F0030019F01DF9A08310
:202C80001E20A28B02F59B7393FBF0F01E2101FB1030C0B208B1C0F11E00821802F59B7243
:202CA00062831E20A28B02F5967293B293FBF0F001FB1030A283C0B208B1C0F11E0080181F
:202CC000A08380B2E27D618B521E50434018608307F13008608BB43080003866062089F852
:202CE0000300E17F41F00801E17720E040F00100607571684A78510744BF40F002006075DC
:202D0000607D19F0DDF8A0750023387CA27DC0F38001521C00F0030019F0CEF8A083A08B3B
:202D200000F59670A0830020386689F80300A17D207D61F3050007F188012075087003226C
:202D4000607D48708A70A87E800000F0040040F003008870EA7ED20002F00802104388709E
:202D60000020C8700021C7F89010A88BC0F30B00A8837168CA7D40EA0230A8830022617DB8
:202D800001F0FE0120460BF0FBF8019700271DE01C20784304EB000B01991C220BF164000A
:202DA00018F01CF80BF16C00052101717F1CA28B92000260FFB2DAF83C104A6911686B795C
:202DC00003EB43031944B1F801204281E07D401E8742DDDB019F20460EF03EFFE07D0128D2
:202DE00009D013D3032809D03EBF04F164007860C6F818800AE0C7F8048007E004F164001F
:202E0000786004F18001B161C6F8348041F6240038860021798607F13C08B868618B00EB74
:202E20008100B8630221822088F8000088F80110002194F8210088F8031000F03F0088F810
:202E400002007068807D012818BF022803D100F07F00401E04E083280CBF062002202021ED
:202E600088F8040088F805104FF0000BDAF83C00416908686A7902EB42021044B0F80110A6
:202E8000A8F80610C7F86CB07068417811F0030F20D019F00DF8F866DAF818000078C10777
:202EA0004CBF1F200F20DAF8181009788A0748BF40F02000DAF8181009784A0748BF40F033
:202EC0004000DAF8181009780A0748BF40F0800089F8140089F815B071685A4A897C01F021
:202EE000030189F81510A87E800000F00400014389F81510E87EC00000F00800014341F011
:202F0000100189F81510107838B199F8140000F0FE0041F0400189F8140089F81510E07FEA
:202F200018F0CEFF84F82000204618F0BDFFE07FC10635D5706894F820204178521C88076C
:202F40004EBFD21EE87F121898F80400C0F380010023D2B200F0030018F0AEFF28801E22E4
:202F6000288800F59670C0F11E0190FBF2F21E2000FB021129717168487881074CBF002035
:202F80004FF49B702988401828806880B86B29882A795218A63200EB82007867022002E041
:202FA000C7F874B0002089F8170004F13000C7F8800007F1840071684A78510707D504F1D2
:202FC0003802026099F8150040F0200007E01E490A685168016099F8150000F0DF0089F88F
:202FE0001500A17F94F8200060F30501A17740F60B00A8F81000A8F812B0DAF8380000889A
:2030000080007865DAF83800008800B1072088F81C00022088F81D0094F84510A8F81E10DF
:2030200070684178880744BF0121A8F81E10009808B10AF065F90020BDE8FE8F80410020A1
:2030400000E30100880E00206C0F00202DE9F84305460C46480413D4A00024D4A0075CD4AB
:2030600060057ED4200500F10681200700F13B81600040F1F68011F085F924F08044F0E0FA
:2030800018F078F9DFF81C140F6D3FB1D7E90A1202F0E04201F00A01891849D018F01AFB81
:2030A00024F48044DDE0BB48DFF8FC73016841F080010160B878012804D1042015F022FB3E
:2030C0000020B87018F056F90646042018F088F9DFF8D8130A68904219D12A7EBAB1FA68F3
:2030E000AAB1DFF8C003806C002800F09780C16840F603020988914206D0C06840F60401BF
:203100000088884240F08A8005F1140088E040F6C4120860C5E9042284E007F04BFADFF8F2
:203120008403006C002840F09D8024F0020498E0D7E90A65D7E90A12AA43B143C7E90A12DD
:2031400018F0C8FAB8680028AAD056EA0500A7D0D7F808C03869B7F9301032462B46E047EF
:203160009EE718F007F9054616F0AEFC002800F0B780CC48876B002F00F0B280DFF828839F
:203180000420CB49002288F81800C64817F0C9FC18F0BBFAC74818F091FAC7480068006B22
:2031A0008047C8F810000125042088F8025015F027FD386990F82810C8F80400490703D5E6
:2031C000436A042100229847012012F025F8D8F8040045760DF016F9D8F8040081680B4633
:2031E0001A465B684BB11E88A6F60306072EF7D805FA06F616F0830FF2D0537B03F0F00358
:20320000013353730023FD6853602D88A5F60305012D00F28A80C8F810309FE005F1100072
:2032200013F0A2FD304618F055FA15F001FD78B12E6A28466FF4807100224FF00073B047CE
:203240009848806B10B111F09DF801E044F00204EE692846002100224FF08063B04724F0FC
:20326000005434B1974821462830BDE8F84318F0FABABDE8F8838C4EB078012804D1042097
:2032800015F040FA0020B07015F0D2FC38B170686FF4807100224FF00073056AA8473069FC
:2032A00050B185480068006B804732697168801A000BC860002030617A4D81490022284693
:2032C00017F02FFC02203076286C20B17D480221283018F0C8FA11F055F824F40064C0E714
:2032E00018F013FA41E018F045F8054616F0ECFBA0B1DFF8B48198F8000000070ED498F9B4
:20330000000000280AD468460DF072F908B1009820B1DFF8B49199F8610048B318F0F5F970
:2033200011F030F824F008049BE7034633F8385FA5B190F8445090F8456005F0F00580F8B6
:20334000445006F0F005013580F8455000255360C5634587507B00F0F000507357480022B0
:20336000C2610160012016F06FFE24F4806478E700260127602E0FD009EB0600817A31B148
:203380008772407A07FA00F0C0B215F0D5F92036F0E700BFCC210840032088F818004548DB
:2033A00018F08CF918F0B1F9444F3E4D0022786900207861F968F8602846444917F0B1FB4D
:2033C0003D480068006B8047D8F80C10D8F82020411A02EB1130B0EB113F38BF4FF0FF30F9
:2033E00098F82410C8F8200021B1D8F80810B0EBC12F20D916F038FEB8B140F60900414680
:2034000021F83C0F002048804A7B02F0F00201324A730A7B02F0F0020A734860F861396047
:20342000B8F83E0010F4406FFAD00020C8F82000012088F8240013F0D5F92548002101609C
:203440000220002116F000FE022015F05BF910200CF0C2F998F8010020B9D8F80400503005
:2034600018F0FDF91B48807810B90D200CF0B4F998F8250028B1002088F82500052015F0D7
:2034800041F9002088F818001348C8F81C000220B5F85610B5F85420914208BF072010F0EC
:2034A000EDF93DE79C220020CC1F0020FC270020A59A0100403C00208C0100100010044009
:2034C0006DC800007021002038390020E94301000000046064E701005DC300002DE9FE4F15
:2034E0000546DFF82C04DFF82C640278002A4CD0052A73D0062A00F08080072A18BF082A87
:2035000000F0F5800A2A00F0D681112A02D0132A70D0F4E1DFF800341878002118F044FD67
:2035200004001EBF606D407810F00C0F2DD0216DC0064CBF886CC86E016801F108050622F4
:20354000A91C684617F04AFC287800F00F0105291BD145096946C0F3801018F0A1FC0028E4
:2035600013D03168684618F097FC0746316804F1380018F091FC87420DD0606D4178C806E4
:2035800004D440F2014018F083FCBEE1607B40F002006073B9E133681E2010FB07F69819AE
:2035A00006226946C01D17F019FC606D4178C806F0D5A17B0129EDD1DFF86003817848069D
:2035C00005D5E90703D4206D41F20A4102E0206D41F2044141804183418696E118F01DF977
:2035E0000028FAD10FF0B2FE012802D0012018F04BFC8AE111F04FF987E1DFF824532868C4
:2036000018F03EFC0400F7D020790328F4D1207A00F00F01072937D1C24800684169497A63
:203620004A1E11425CD0617A04F10A035A5C02F03F02252A54DBA17A8A09012A50D111F064
:203640003F0F4DD0007C17F0B5FBE17ACA074CBF04F1110204F10B028B0748BF921D0B0731
:2036600048BF921CC90648BFD21C1278520916214A43AD498B180A31EB608A5A428699893B
:203680008186DA89C2862BE000F00F00082827D1A17A880924D119B3A2480168087C17F0FB
:2036A00089FBE17A074688071AD5062201F001015143601800F10C01684617F08FFB207A62
:2036C000C009694618F0ECFB50B1306800F10D01684618F0D1FB18B90521384616F00CF8EA
:2036E0002079032802D0002015F008FE03E1DFF83CB29BF802000024FF281BD017F05AFB39
:20370000804608F16C09D9F8040018F0B9FB2A460179032901D011000CD08368197801F0A3
:2037200003008D06009003D50124009818B9BFE01000FAD0E9E05D7803F1020A34B31AF8ED
:20374000010B7B4B01902C2098F806C01F6810FB0CFC67444FF0010E87F805E0002A1F68BC
:2037600098F806E007F11A0C019F10FB0EFE07F01F070CF80E7098F806701B6810FB07F0D4
:203780001844019BC3F38113C3761AD10098032808F217171AD0ADB199F8000068B108F1ED
:2037A000F4000278012A0DD1594B1A78072A04D0082A04BFC078012804D13D2179700120C4
:2037C0003870A2E05B4A1378012BFAD098F8940070B32D1FEDB253462A4640460EF0FEFBE1
:2037E00000281EBF54490878002807D13D21797001203870306818F03BFB86E04F4801685B
:203800008847064698F80610DBF804204FF4D07041435018002280F8412108F59E70016811
:20382000807949080FF0A0F845490A6830469047009803281ED043494869007882070DD589
:2038400098F89400002814BF281D28464A691178CA0748BFC01C1AF8000000E0812089F892
:2038600008002A460098C3B29BF80200514605F037F81DE09AF800001CB11B2804BF022DE2
:2038800001251C2803D230490B5C9D4205D0B8700721404618F06CFB0AE01D480178082917
:2038A0005146404602D117F076FF01E0FEF7CEFED9F8040020E0254C207830B3244D286838
:2038C00018F0DEFA08B3017903291ED1017A8A0611D5807AE178C0F38112914202BF217900
:2038E00000F01F00814206D1A078002801BF607800280121A170286818F0B6FA05E000209F
:2039000015F0FCFC862018F04BFBBDE8F78F00BFC80F0020680F0020D50F0020C00C00204E
:20392000BC0A0020540F0020E0070020780E0020F4400020D20F0020854100205C26002094
:203940006026002000E3010024E6010070400020AC0C00202DE9F84FDFF82854A978002435
:20396000FF2904BF002015F0C9FCA87817F022FA054605F1680605F5C9773168086805F147
:20398000900808B1EC8311E0B07B002804BFB07E00280BD198F80010002904BF38780028CA
:2039A00004D1287F012804BF688CE8832989E88B4118491C6981284618F052FA01281EBFAB
:2039C000DFF8C4030178012903D12989EC83491C69814FF6FF79B07E01280DD1B28B698941
:2039E000288918F039FA38B1298968894A1C93B298422FD0B08B23E098F8000001280FD1F4
:203A0000B8F802206989288918F026FA40B1298968894A1C93B298421CD0B8F802000FE063
:203A20003878012816D17A886989288918F014FA80B1298968894A1C93B298420AD07888D8
:203A400092B2904206D04844688180B218F000FA4844E883387801280FD128897988401C13
:203A600080B2884209DB7C793C71022038702346A979224600200AF0FDFC05F59A7108796E
:203A800020B128890021401CE9836881B07E012813D12989B08B4B1C9BB298420DD1688155
:203AA00018F0D6F9804605F12E008188308C01FB080828460FF016FA03E005F12E01B1F846
:203AC0000480E88BB14B411C01FB08F82968CA6840F6C41909FB0822CA60AD49DA7BD30747
:203AE00002D56B8A00220BE00A88521C93B2012B03BF05F59A7CBCF8063003F2DC536B8AA7
:203B000003FB08F34FF4C87CB3FBFCF35B1C6B610A8085F82000C5F818804FF01C0BDFF88C
:203B200074A2AB79DAF8000000F108021BFB03F3D1582A68116100F10801AB79D26868691C
:203B40001BFB03F3121ACA50DAF80000AB7900F108021BFB03F3D1582A68916000F10C026B
:203B6000A9791BFB01F10C30535C03F0F00343F002034354DAF80010AB798A1C1BFB03F3C3
:203B80000021D152387908B915F0B8FBDAF80000AA7900F1100138791BFB02F240088854E1
:203BA000A879DAF800101BFB00F00844002141743879042814D1A879DAF800101BFB00F00F
:203BC00001F110021031135C3A7A43EA82030B54AA79DAF800001BFB02F202442020507423
:203BE000DAF80010A87901F112021BFB00F0002111526949A8790A6802F114034FEA401C4E
:203C0000143253F80C00AB79D5F814C05B0100EB4C00D050B07E02280DD10A68AE7902F1CD
:203C20001403760114329859AB7995F82E605B0119FB0600D05005F12E025448C37BD8070B
:203C40005ED5DAF80000AE7900F108041BFB06F60830A359AC791BFB04F4A3F5A8630351CB
:203C6000DAF80000AC7900F108031BFB04F418592B6898600446494800FB0848C3F81080D6
:203C80000868AE7900F1140476011430A359AC79640103F5F6630351387904280BD1086875
:203CA000AE7900F1140476011430A359AC79640103F5616303510868AC7900F11403640181
:203CC0001859C5F83401364B186B0C68AE799288006804EB461742436424B2FBF4F409FB6E
:203CE00004F0A0F596692F48C7F81C900278012A2FD10868A97900EB41120120D0722FE073
:203D0000042C0BD10868AE7900F1140476011430A359AC79640103F56163035138790428C9
:203D20000CBF4FF4AA504FF4E6600B68AE7903F114047601A359181A938809FB03F3A3F5FA
:203D400016739842BFD30821284615F0D5FC012016E0586A0968AA79407801EB4213D87251
:203D6000A879DAF800102A681BFB00FB01EB0B00506007210C48017028460FF079F800200B
:203D8000BDE8F28F780E0020D10F0020980C00206E410020980E00209C0E00203CF6FFFF04
:203DA00000E30100CC0F0020C80F00202DE9F04F0F46380589B018D5DFF8E4532888FF283B
:203DC0000ED0C0B216F0F6FF040009D0A079162118F03AF8204616F0E3FF204609F006FB83
:203DE000FF20288087F40060D6E1F80504D511F062F987F48070CFE1B80604D517F0E1FCA2
:203E000087F02000C8E1F8070CD517F0C1F930B100218160DFF88C03006800B1804787F021
:203E20000100B9E1380704D517F0CDFC87F00800B2E1F8060FD50021002200230691059277
:203E400004910393029101920091022017F0F8FF87F01000A0E1B8070FD5002100230691DA
:203E600005910491039302910191009101223C2017F0E6FF87F002008EE179074FF01E0893
:203E8000C94EDFF828A340F1CD80C9480022002108920791007818F087F80446C548817816
:203EA000FF2904BF002015F029FAA07A16F082FF05469AF8000095F82E91002805F5947BD4
:203EC00069D0606D807A022818BF032807D130680D3017F0B1FF10B93068C11D07915946DC
:203EE000484617F0DDFFA0B3606D807C3368002818BF012804D11946584617F0CDFF04E0E9
:203F00005A464946184618F083F8FF2843D018FB00F83068404406225946C01D16F05EFF29
:203F2000306810F80810404400F1010BC01D41F0020908900622616DC87A00F0010085F8F1
:203F40002E01606D00F10C0105F5947016F046FF21E05946484617F06BFFE0B130685A46B6
:203F6000494618F055F8FF2815D018FB00F8306840440D3017F060FF58B9306840440D301D
:203F800017F05AFF002801BF30684044417F012901D149F0020905F12C004B4601780691FA
:203FA0004289120905920122698C0491C0880899029140080390CDF800B0079801900020BB
:203FC000A97917F03DFFD5F89C017B4988420CBF00210121A87917F027FF7848AB790268DA
:203FE0002C214B43134401221A73AB7904684B4323445A73AB7904684B4323449A73AB79D7
:2040000004684B432344DA73AB79006811FB03F10144002008740720A9790EF092FD87F038
:204020000400B9E038060FD500210023069105910491039302910191009101223B2017F0EA
:20404000FFFE87F08000A7E0F8045DD55C4930680C680D3017F0F0FE002844D13068C11D21
:204060000D3017F0DDFE3EE0606D4178480704F13E0526D5287802281EBF03286878012820
:2040800030D16978306804F1380217F0C1FF8146B9F1FF0F15D0306818FB09F948440D30D6
:2040A00017F0CAFE68B930684844C11D0D3017F0B7FE30684844C11D062204F1380016F0B8
:2040C0008DFE2878022818BF03280BD130680D3017F0B2FE30B93068C11D062204F1300075
:2040E00016F07CFE2468002CBED13648DAF8042000784FF4805112F0ADFF10B18E2017F0D5
:204100008BFE87F4805047E0B80505D517F050F92D4901200860FEE7780504D517F0EEFB93
:2041200087F4806038E0780405D5812017F074FE87F4804030E0B9042DD5244C206810B1D9
:20414000002015F0DBF84FF0FF3020600020204C0EF092FB216851F8202F684690471D4956
:204160004A6B086BC96A24681B4B019200900293ADF810106B46194A19491A4803921A4AA4
:2041800007922568194AA8471949086003F07AFB87F4005000E0002009B0BDE8F08F00BF0E
:2041A00056260020480F0020680F0020880E0020D70F0020780E00204DE50110F44000205C
:2041C0004C0F0020C70F00207C052043380F0020200F00203822002071B1010081B1010004
:2041E00050400020883300201EFB0080EC0A00201C0F00202DE9F041FF2806462AD117F07E
:2042000091F910F01F0F22D0042014F0FBF808B1042016E0012014F0F5F808B1012010E02A
:20422000022014F0EFF808B102200AE0102014F0E9F808B1102004E0082014F0E3F820B1F2
:204240000820BDE8F04114F015B915F057F80020BDE8F08114F00EF95FEA000814BFD8F805
:2042600004500025012E46F2A81740F6C4140BD0022E69D0042E00F0B780082E00F010813D
:20428000102E00F05781E2E7012014F0BBF800281EBFDFF86803006800281CBF8788BF00F7
:2042A000102014F0AFF818B3102014F0E3F8040002D066685EB900E00026022014F0A2F8C8
:2042C00028B1022014F0D6F8040018BF66686DB1012014F097F8002818BF002E06D0B0687B
:2042E000C11BA86815F090FF00282BD02046AFE7022014F087F838B1022014F0BBF80400B4
:2043000014BF666800260AE0042014F07BF850B1042014F0AFF8040014BF66680026002D89
:20432000E4D001203EE1082014F06CF828B1082014F0A0F8040005D052E0012014F062F8D2
:20434000002885D0404683E7022014F05BF858B1AB480168AB48CA69017801EB810153189A
:20436000DF88674307F51667042014F04BF838B1042014F07FF8040014BF6668002622E0F3
:20438000082014F03FF898B1082014F073F8040002D06668BEB900E00026012014F032F86A
:2043A00088B1012014F066F8040018BF66680AE0012014F027F850B1012014F05BF80400ED
:2043C00014BF66680026002D90D00220EAE0102014F018F830B1102014F04CF80400B1D07B
:2043E0006068EAE00220A9E7042014F00BF850B18548016885484A69017802EB01139F89F5
:20440000674307F51667082013F0FCFF98B1082014F030F8040002D06668DEBB00E0002673
:20442000012013F0EFFFA8B3012014F023F8040018BF66682EE0012013F0E4FF38B1012007
:2044400014F018F8040014BF6668002622E0102013F0D8FF98B1102014F00CF8040002D01A
:204460006668BEB900E00026022013F0CBFF88B1022013F0FFFF040018BF66680AE00220F1
:2044800013F0C0FF50B1022013F0F4FF040014BF66680026002D23D0042083E004204DE777
:2044A00017F0B3F908B1D0F89070042013F0AAFF38B1042013F0DEFF040014BF6668002640
:2044C00032E0012013F09EFF58B1012013F0D2FF002D044604D0082013F094FF00286ED19B
:2044E00004E7102013F08EFF98B1102013F0C2FF040002D06668BEB900E00026022013F08E
:2045000081FF88B1022013F0B5FF040018BF66680AE0022013F076FF50B1022013F0AAFF0D
:20452000040014BF66680026002DD9D0082039E0082003E7032017F06AF908B1D0F8987071
:20454000022013F05FFF38B1022013F093FF002D0446C5D01020BFE7042013F053FF38B1F4
:20456000042013F087FF04000CBF0026666816E0082013F047FF18B3082013F07BFF0400F0
:2045800002D066685EB900E00026012013F03AFF28B1012013F06EFF040018BF6668002DC1
:2045A0009ED0102013F02EFF002818BF002E97D0B068C11BA86815F027FE002890D1C1E63B
:2045C000012013F01FFFB0B1012013F053FF040014BF66680026002D05D0102013F012FFB1
:2045E000002818BF002E3FF481AEB068C11BA86815F00AFEE1E71020A0E600BF0841002075
:20460000500F0020D80F0020540F0020D90F00202DE9FE4F0422FF2101A816F0D5FBDFF88A
:204620006C63B0780024FF2800F0AD8116F0C2FB0546B07816F084FD834605F217100178FD
:20464000012908BF417800F0268105F17406B07B022820D105F12E0105F12E008A8800897F
:204660009BF81C70A97905F12E0352080009DB880090C7F3C007002F09D0002017F0C8FB09
:204680009BF81C0000F0F7008BF81C0002E0302017F0BEFBB47395F89201022808BF85F83E
:2046A0009241307F022808BF347705F59278B8F80E1019B198F80C0009F042FF07200EF045
:2046C000CCFF6889B24F288105F58D73BA7AF879397B80184118F87A0818797B41180091C0
:2046E00005F58D708188491C81800098B5F81A114118A5F81A1105F58D71488810185880FB
:20470000D8F80000F8B1A34995F806E00B681C2103F10E0C11FB0EFE1CF80EC030F81CE0E5
:204720000099714420F81C101C2195F806C00E3311FB0CFC13F80C3000EB4300B0F84A108B
:204740005218A0F84A2014F063FBF879DFF84892002804BFF87A002805D1387B002804BF70
:20476000787B00283FD09BF81B00ABF80E40C009A2460FD09BF81C0000F00701022905DA2F
:20478000411C61F302008BF81C0003E0A879002117F045F82989E8892C744118287FA98171
:2047A000012804BF688CE883A979012207200EF0C8F9787858B101212977B078002804BFB5
:2047C000B07B002803D1307F08B9688CE88398F81400002868D0022804BFF87A00285ED129
:2047E00088F8144060E0A979002207200EF0A9F9EC839BF81C1011F0070F03D19BF81B00D3
:20480000C00903D0A879002117F009F8287CB97A05F58D7259B14FF0010A08B1E889A8813B
:204820002C74287F012826D1688CE88323E0D188491C4FF0020AD180E8B1D9F80000AB79C7
:2048400095F82EE000F1140168694FEA400C40F6C4105B0110FB0ECC0CF5F66C41F803C0B7
:20486000D9F80010A87901EB4010C17C01F0F00141F00401C174A8892989814206D088422A
:2048800097D2081A41F2AB01884292DA108800280CBF3E210821284614F02EFF73E0787A81
:2048A00010B1022188F81410F87BC1070ED538692968C86000F59070C860D9F80010AA79D7
:2048C00001F1140052010021815014E0D9F80000A97900F1140249015058C8F810002D4868
:2048E000AB7901681C2001F108024343D0582968C860EC832C77294A50690078810702D577
:20490000B87B802800D181203070254991F8200018B12946012016F076FF28460AF096FDC4
:2049200002281BD1F079022805DB01AA1D49284610F064F90446284617F066FA012822D0D8
:2049400020000DD0224601A9284610F041FD38B928460AF07BFD012802D114E0012812D0D0
:204960000121284617F04CFAFEF7F4FF01280AD0284610F08AFE16F092FF009881B22A46A7
:20498000504608F0A9FDBDE8F78F00BF780E0020980C0020980E00209C0E002000E301001B
:2049A000F83D0020242800202DE9F84F054605F14C0AE87D9AF80010DAF8047081424FF0F3
:2049C0000008C0F0918105F1280407F1900907F17306C34640F08C80A87F7075E97FB1750A
:2049E000DAF808205278930710D5EA7FD30604D5C01E707501F0EF01B175C7F874B086F82E
:204A000000800022B17D01F0FE0168E1910608D4E08B00B1E07E3076E08B00B1206AC9F893
:204A20000000DAF808004178CA070DD5E08B00281CBF206A002807D0C9F80000A17EE08BEE
:204A4000814238BF08463076E87FC1060CD5B86B217800EB8100B863B86BA98CA63100EB3C
:204A600081007867022002E0C7F874B000203070DAF80800417811F0030F22D1007816F018
:204A8000C8FE5FEA00081CD098F8B000032809D1E87F810615D440F02000E877B07D40F0EB
:204AA00020000DE068B9E87F81060AD500F0DF00E877707DA0F112017175B07D00F0DF005A
:204AC000B075E97F002201F0FC01284609F058FAB8F1000F36D0E87F810633D598F8B0008C
:204AE00002282FD141462846BDE8F44F16F09FBEE87F81060AD500F0DF00E877707DA0F1D3
:204B000012017175B07D00F0DF00B075DAF808004178C80717D5B07D717D00F0F700891E84
:204B200001F03F0182075CBF891D40F00200420644BF491E00F0BF00B0757175C9F800B0EB
:204B400086F81880D0E09AF80020E87D121AD2B28907009240F18080012A07F140083ED1FB
:204B6000B86BA98C00EB8100B863A87F00F03F00A8777075E97FB175DAF8082053785A0748
:204B800003D5801F707501F0FD01B1750023717D98F80000E27E01F03F018A18C0F380019C
:204BA000521C00F0030017F087F900F59B70A8841E2180B290FBF1F0B17D82B201F0FE01B2
:204BC000284609F0DDF986F800B0E08B00B1E07E3076E08B00B1206AC9F8000084E0B86B5C
:204BE000A98C022A00EB8100B86325D1E87FC10706D5707D811F7175B07D00F0FE00B0751A
:204C00000023717D98F80000E27E01F03F018A18C0F38001521C00F0030017F04DF900F5E9
:204C20009B70A8840022B17D01F0FE01284609F0A7F9607FA8F81A00617F0098491C081A5E
:204C4000C0B201281CDDB96BAA8CA63201EB820179670221317014E0B86BA98C00EB8100C3
:204C6000B863617F0098081AE97FCA06C0B207D5B96BAA8CA63201EB8201796702213170B4
:204C800090B395F81F80A97FD9F80020E37E1A44C9F8002028F00108DAF8082052785307AD
:204CA00048BF28F00208920748BF28F00808012807D1207F3076C7F874B028F0100886F82C
:204CC00000B001F0C004404617F0FAF800F03F002043707586F81680002208F0FC012846E0
:204CE000BDE8F84F09F04CB9BDE8F18F2DE9F04F8FB0074618984FF0000C002A01938DF886
:204D0000200000F08D810AA80E464FF0200A002400F1100ECDF800E0114611F8010B252875
:204D20000E910CD0002800F07781022EC0F00C81013E002F00F0078107F8010B04E15378DA
:204D4000901C0E902D2B07D14FF00109D01C8DF80D900E90937803E04FF000098DF80D908C
:204D6000302B05D10121069110F8011B0E9002E01946CDF818C04FF0FF322A29CDF808C059
:204D800004922CD1019D29680A1D2A60D1F80080CDF80880B8F1FF3F10F8011B0E9007DC7E
:204DA0004FF00109C8F100088DF80D90CDF808802E2925D1CDF810C0024612F8011B2A29D7
:204DC0000E9220D1019D29680A1D2A60096821EAE17BCDF810B0417802300E9027E04FF036
:204DE0000008A1F13002092AE0D810F8012B08EB880501EB4501A1F130080E901146F0E780
:204E00004FF0FF3B13E04FF0000BA1F1300009280AD812F8010B0BEB8B0501EB4501A1F1A7
:204E2000300B0E920146F0E71046CDF810B0302B41F0200306BFCDF81880424600226C2B8C
:204E400006D101218DF80C1010F8011B0E9001E08DF80CC0CDF81CE00AAB6929CDF814C023
:204E6000099301D064290CD1019B1868011D19609345C8BF5A46016870466FF00903069287
:204E80001EE075290AD0A1F16F03092B5FD8DFE803F0058C6A6AA76A6A6A6A05019D28688C
:204EA000031D2B6078294FF0080308BF1023752908BF0A239345C8BF5A460168069270461A
:204EC0000EF0D4F9DDF800E00990AEEB00010591A8EB01004FF0000CB9F1000F02901CD172
:204EE00009E0022E06D3013E1FB107F801AB029800E00027013401380290F2DA0DE009980B
:204F0000022E07D3013E27B1007807F8010B099800E000270130013409900598411E002822
:204F20000591ECD19DF80D0078B10298013802900BDB022E05D3013E17B107F801AB00E06E
:204F400000270134F1E7002701340E9AE4E6632909D1019A1068011D116001210068059127
:204F60008DF82800B4E70138022E0E9052D36FF000400BF1010186426FF0004038BF30464C
:204F80000246B34538BF0A46002908BF024604920EA9019A02AB05F0B3FBDDF800E09DF8D0
:204FA0000D90DDF80880059992E7019A10231068011D11600821082206919DF82010002933
:204FC000016870460EF052F9DDF800E0A0F101014FF04002099100F8012CAEEB010176E7E9
:204FE000019A1068011D11609DF82010006800290D49002808BF0846099016F05DF90146EA
:20500000834538BF59461BF1010208BF0146DDF800E05CE700215BE70FB100203870A44648
:2050200060460FB0BDE8F08F5CD301002DE9F84F05004ED0DFF8EC8298F80000092818BF5A
:205040000A2804D00B281CBF0C280D2801D1212065E1A878002116F0A7FF040008BF422060
:20506000F6D0B14FA978DFF8C4A2397098F8000010B9A8788AF8000004F14806F068417814
:2050800001F01201022902BF706900280C2012D0607AF0B1A07B012804D1B5F8030008B114
:2050A000812816DA6878402813DA204616F0A4FEB06808B9072032E1B561287801281FD132
:2050C000A07B00281CBF0128042819D19848007808B9122023E197494A78824208BF0920CE
:2050E000F8D0F068417848070AD504F1220180204A7F04F1380106F029FA08B10B200EE10E
:20510000687808B911200AE12878DFF82C92DFF82CB2012840F0B28000212173F166217AB6
:20512000012903D1B16968794871F7E011200EF094FA012000212072E1726173254609F0CA
:205140003DFE6060DBF8000080477D4A0146106802E06A68426000680028FAD10846D9F864
:20516000001088476968774848610021387816F042FB3978012211200DF0E3FCF068417811
:20518000C80605D5284601F05BFA010024D0C6E0688C16F082FB85F82100F068007816F02D
:2051A00038FB04001CBF94F8B000002807D0E87F40F02000E877687D40F018006875284614
:2051C00016F06FFB0100E2D134B194F8B000012804BF284616F027FBF0684178C8071CD537
:2051E00005F14204A18800291CBF3068002814D022788A4211D20F2016F0FAFD68B1F068BC
:2052000001788DF800100F20A288ADF8012021788DF80310694616F0E7FD98F80000A0B9AE
:205220004949087800281EBFF068417811F0030F03D04648006816F0D3FD112088F80000E3
:205240000121297216F02BFB68E0284613F0C6FB00281CBFB168002960D0AA7B012A04D052
:205260002A69808802EB800202E0486E2A69821895F8B810104609F01FFC4FE0207A0028AF
:205280004CD0DBF80010884705463878012116F0B2FA00202E4920720A683E7811460B6856
:2052A000187A002802BF586D0378B34203D0C9689142F4D10BE0274E3078012807DD08463F
:2052C00013F04CF815F08CFF3078411E31703A789AF80000824217D115F05AFF616888426E
:2052E00012D113F095FD40F2014016F0D1FD1A491A4A1B4808600121107809F021F9D9F8CF
:2053000000102846884709E0204616F065FDD9F8001028468847204612F038FD0020BDE809
:20532000F28F00BFC80F0020D60F0020D50F0020D40F0020780E0020602600205C2600203C
:205340004C0F0020CD830000880E00206C0F00200841002082410020480F0020C70F002078
:20536000B99000002DE9FE4FDFF81883D8F804601EB9BDE8F74F16F02BBD3078DFF8089311
:20538000C24FDFF80CA3012818BF02280AD004281CBF0828102805D0402818BF802800F057
:2053A0009F8067E116F0C4F80028FAD0012013F029F820B1012013F05DF812F0EBFF08202F
:2053C00013F020F820B1082013F054F812F0E2FF3078FEF70FFF050014BF6C6800249AF87A
:2053E0000100002850D016F056FA15F0E3FC064630680090D0F804B0B0798AF80300CCB10F
:205400000099284616F045FA022813D02978012902D008290CD02DE128B916F0D5FC00F5CE
:20542000E8504C30A060012088F8020011211BE1082016E10098017880290CD1082095492B
:2054400038700A78DBF81400012A1ABFD9F824100978012113E007203870B07915F070FE31
:205460000446207BC10748BFB0795AD489480178DBF8140001291CBFD9F824104978C172F2
:20548000B0798AF80200B9E0002D12D02878AE420AD1012818BF082802D1002C03D1EEE07B
:2054A000002013F02BFFE0E0012803D0082800F0D780DFE0002CF2D016F086FC0146A068E8
:2054C00001F5C241A83114F09FFE28B916F07CFC00F5E8504C30A060112038700121BCE0BA
:2054E0009AF80100002800F08B8016F0D4F915F061FC054628680090D0F804B09AF8020046
:2055000015F058FC0190A8798AF803003178402911D1A87915F014FE0446207BC1070AD543
:20552000A87915F047FC052114F0E6F8207B00F0FE002073A3E015F0F5FF10F01F0F3AD02A
:20554000012012F05FFF20B1012012F093FF12F021FF082012F056FF20B1082012F08AFF1F
:2055600012F018FF98F80200FEF744FE064674680CB3009916F08DF902281CD03178012954
:2055800002D008290DD013E028B916F01DFC00F5E8504C30A06011203870012188F8021002
:2055A00004E0082088F802001221397030465DE0002013F0A3FE0198A8421FD00099354882
:2055C0000A78802A0BD10821397000780128DBF814001ABFD9F82410097801210AE00722D5
:2055E0003A7000780128DBF814000EBF0121D9F824104978C172A8798AF80200009835E03F
:2056000015F090FF10F01F0F39D0012012F0FAFE20B1012012F02EFF12F0BCFE082012F09D
:20562000F1FE20B1082012F025FF12F0B3FE98F80200FEF7DFFD054628786C68012802D08C
:2056400008280DD01BE0D4B116F0BEFB00F5E8504C30A06001211120387088F8021004E0E4
:205660006CB188F80200122139702846BDE8FE4F08F038BBBDE8FE4F002013F03FBEBDE8AD
:20568000F78F00BF8840002000E30100C80F0020780E0020CC0F0020F8B5144600254FF4F2
:2056A0008067DFF89862C21B84B006F1880337D0921E3CD0521E44D0521E4AD0521E50D03E
:2056C000521E54D0521E00F07A80921E00F07C80D21E00F0AC80521E00F0B780921E00F0FD
:2056E000C080521E00F07B80521E00F0C180521E00F0CF80521E00F0D280521E3ED0521E1F
:2057000056D0521E4BD0921E00F0DE80921E00F0E280521E00F0ED80521E00F0F98000E151
:2057200001290FD12078022817DC707003E1012908D12078022810DA0028B070F6D1B07404
:20574000E3E0012940F0EB802078052805DAF070F1E001296CD12078022880F2E08070730E
:20576000E9E0102964D110222146754814E001295ED12078022863DA3071DCE0012957D1A1
:20578000207802285CDA00287071F6D00120F074602206F12801184615F020FBCBE00129C8
:2057A000FCD12078022802DAB07115F0F9FCC2E001293DD12078022842DAF072BBE0012984
:2057C00036D12078F073B6E0002931D116F0B4FB10B9FBF7BEFC1DE00120F075ABE007299E
:2057E00026D10622611C02A815F04AF900950023217801AA02A80AF0FDF8B0B9F07A10B9EA
:2058000016F09AFB10B1F07A012808D19DF80400FBF7B0FC0546502014F046FD1EE0716AAE
:205820009DF804200120885485E0342583E0012975D1717C2078022903D0C11F0A2902D3B6
:205840006DE010286BD1307475E0012967D1B17D2078B075002908BF01286CD1FBF703FCFA
:2058600069E001295BD12078052858DA307562E0012954D12078022851DC00284FD0707442
:20588000022803BF102030740120002016F098FA51E0012943D1207814F01AFF4BE0707937
:2058A00000283CD1602908D1002C38D060222146184615F093FA012004E001292FD1002CE9
:2058C0002DD02078F07436E0012928D13CB320781C4908702FE011BB16F02EFB30B9FBF74D
:2058E000E0FC0546502014F0DFFC24E00120307621E0012913D12178022910DA012904BFBD
:20590000B078002816D0B174084615F051FC12E0012904D120780228B8BF70750BDB18255A
:2059200009E00F2806DA022904D1218811F05AFE054600E00225284605B0F0BDB41C002053
:205940008C3E0020894100202DE9F04F89B0A04E0546A04F30780328387040F0AC800020C6
:205960003070387002AC204615F0EAFE2046002114F0E6FC984CB8602E21204615F048FA79
:205980004FF0FF30A0822061E06013F0AFFB0020294610F04BFF07F11001F86015F0A9FE23
:2059A000D7E905128D4DB1FBF2F0C0B2022828BF022020702870B2F5005F7AD1B1EB403F6F
:2059C00077D3F968002974D04FF6FF7100274FF088586FF0030B61808149616087426DD2D3
:2059E000FEB2002108AA0423304615F0F1FA07EB470004EB800A0898D14600F47C0129F89C
:205A0000160FB1F5402F04D000F07F41B1F1164F3ED1C0F301418AF819106FF0FD0151FA6A
:205A200080F21021022A31D3C2B27E2A2ED003A812F044FB304600214FF088524FF4005347
:205A40004FF4005515F0C4FA1BFA85F5A8B250F808104A1C01D10328F6D801220126D3B2A2
:205A6000042B06D8CBB2FF2B18BF16460132090AF5E740F808105C480399006842685B48D8
:205A8000904755FA86F199F80000544DAAF81C10C0B2702807D0782803D0FE2805D07C2876
:205AA00004D1E77002E0277100E0A7702878013794E70120307009B0BDE8F08FE178FF29D7
:205AC00003D0DFF81081012529E02179FF2904D0DFF80081E170022521E0A178DFF8F48091
:205AE000FF290ED00131B1FBF0F202FB101000EB400104EB8101898B09B1E070EBE7FF2017
:205B0000A07000250020E5700BF03AF898F8001008437E2188F80000002012F0BFFDA078AE
:205B2000FF2813D12D48E17800780131B1FBF0F202FB1010A0700BF023F898F80010084326
:205B4000FE2188F80000A07812F0A8FD2548E278022D057002EB4200627004EB8000818B00
:205B6000E18028D0012D2BD103AD002788B2182826D30739D0B22A4689B20BF0E9FF9DF873
:205B80001700400717D5E088BDF81A10E6782A4603230097401A073881B2304605F0B6FB01
:205BA000E27820B9BDF8181009B196420BD0964206D0E188DAE701206071002000F0FEFB95
:205BC00098F8000077E79DF81C0010F089FBF7E76727002024250020A03D00208E410020C1
:205BE000FF0000208F410020D8010010004003402DE9F04F8DB0044600209A4616460F469D
:205C0000CDE90B00CDE909008748856880460CF025FA1C2803D00CF021FA1B281BD1308852
:205C200040F60201884218BFB0F5C15F03D1F07B022810D93EE043F6070188420BD196F8E0
:205C40002400032807D33069784940F0806020F0604088422ED100206FB366B3387825FA0E
:205C600000F0C00726D03046002115F0E4FD7048C4E90176006880B109A800900CA90BAADA
:205C80000AAB304605F0B8FF0B980B214FF6FF72502314F059F9FF280CD015F06BFB654FBD
:205CA00006467878012802D840B1012070E0304615F010FD00200DB0BDE8F08F05F010FFB6
:205CC0005D480DF10409016841F0020101605B48C8F80000484615F0D3F9DFF864B15A49C5
:205CE0004A469BF801009BF8005003905548283012F056FD554856494A4612F051FD484616
:205D000015F03EF9DFF84C81534A19214B460295404611F0C5FD514A08F11C001A214B46DF
:205D200011F0BEFD4E484F4915F09DFC4E484F4915F099FC4E48006810F4402F06D04D4A35
:205D400007F128000421002313F088FE9BF8020010B10D2009F0A8FE08F1400014F0ECFE09
:205D600008F1380014F0E8FE4349002007223876B8843862386181F860200521C7E9021035
:205D80003E49F96138700420002114F05DF978782C4941F8204001307870304615F09AFCB3
:205DA000BAF1000F06D10DF1040A35492022504615F09CFDDAE90012BAF81000DAE90635BD
:205DC000002AB2FA82F608BF40F6C4126261216060832563760926764FF4FA76C4E9036213
:205DE00001226276274AC4E90722C4E90923DAF80C0000B12062DAF8140000B16062DAF84C
:205E0000080000B1E06104F13800C82115F000F804F15000002114F047F91B4904F1B800BA
:205E200015F021FC204646E7CC2108400F000005AC270020CC1F002000200940110000E00C
:205E400064E701007021002065A50100C83C00207DEE00009C220020E94301002D2C010046
:205E6000843C0020819A0100403C002011A50100B44F0050B95C0100383900205DC30000B9
:205E800034E50100A37F010011B701002DE9F84F012000909A4E9B489B4F0278112A02D0B2
:205EA000122A0DD026E1994C2078002116F07CF897490546087810B100220A70B7E0002DDE
:205EC00000F00B819348DFF850A2DFF8508238600122217811200CF034FE696D4B78286D18
:205EE000DC0641F6080240F1E180044641F20443B4F802C04FF4A0599C451FBFB4F81AE01A
:205F00009E45B4F832C09C451CD095F80EC0BCF1010F04BFB5F89EE09E4513D0B4F802E0D9
:205F200041F20A439E451FBFB4F81AB09B45B4F832E09E4506D0BCF1010F04BFB5F89EC0C8
:205F40009C4503D13380C7F800A072E0002340F2FE3B4FF0180C0CFB03FCA444BCF802E0B3
:205F6000A6F800E0BEF1010FF3D0BEF1000F2CD0AEF1020EBEF1010F27D9BEEB0B0E1AD04D
:205F80004FF48063BEEB03032BD04FF4406BB3EB0B031AD09B1E012B17D91B1F15D040F287
:205FA000FA3BB3EB0B0337D05B1E2AD0D81E18D0001F16D035E0B4F800C040F6010EF445A4
:205FC00003D15B1C022BC4DD33E0A87B01281CBF0428A6F80090C7F8008001200BF07DFE3E
:205FE00027E0A87B012806BF41F20241ACF80210ACF80290308890420BD100200BF06DFE3B
:2060000007E04978CA064CBF816CC16E086800210171C7F800800CE0002013F06FF9832085
:2060200003E0002013F06AF9842015F0B9FF012063E03868504557D1A06C016801F1080561
:20604000A91C2878C0F38012402005F07FFA002801BFA06C0168087903281ED194F86C00D8
:2060600001281AD1D5F80E0000281CBF288B002813D095F8220010F0E00F0ED105F11E00DF
:2060800015F09AFE012808D1688B298BAA8B401C89004843B0EB021F26DBA6F80090C7F86B
:2060A0000080A06C0168002008711DE0418E318041F20443C91A01D0891F01D1D04609E02E
:2060C000408890420CBF002001200BF006FE41F206403080C7F8008006E015F096FB58B12E
:2060E000C0880F493080396001210E4A107808F027FA01E0002000900098BDE8F28F00BF8E
:206100009A0F0020C80F0020480F0020D50F002086410020756B021031180000B9900000D9
:20612000F3410100C70F002082492DE9F043824C824E20700A22002008600D2380484FF403
:206140000A7102704380818085B07E480660B77E7D480770FF2FF17E4170327F8270737FD9
:20616000C370B57F0571F67F467108BFFF2914D1FF2A08BFFF2B10D1FF2D08BFFF2E0CD14A
:2061800072490A7802704B7843708A788270CB78C3700A790271497941716D4902786D4D1C
:2061A0006D4E6E4F0A7043784B7082788A70C378CB7002790A714079694A4871FF2028703B
:2061C0006870A870E87028716871002065490880F06B6549407808706449F06B007808707E
:2061E0001388634863490380F06BC06C08606249F06B90F83C0008706049F06B90F83D0030
:2062000008705F49F06B90F860000870F06B406901795C484A1E0270F06B5B49C0783870C8
:20622000F06B8069086008B913F068F8F06B5749C069086008B913F061F8F06B416D544840
:206240000C2214F0CBFD15F0B3FDF06B5149006A086008B913F052F8F06BDFF83C81406A21
:20626000C8F8000008B913F049F8F06B4B49806A086008B913F042F8F06BC06D00B10120C0
:206280000AF091FE00F0CEFF07280AD105F0EEF920784FF4804108F053F9002013F02EF8A9
:2062A00044E03F480168884781460DF01DFBD8F8000001688847684614F0EAFED8F800208D
:2062C00004208DF80000694652F8043F00209847344908600FF058FEF068334A0188387892
:2062E000324B014311804846196888470C21304815F0EDFA284615F057FD15F051FD2D484E
:2063000000214FF6FF72016082808171F06B90F858102948006814F00BFF0121FF2015F0D9
:206320006AFA20784FF4005108F00AF905B0BDE8F08300BF380F0020C70F0020B64F005094
:20634000700E00203C0F0020400E0020E8120050500E0020480E002000E30100C40F0020B1
:20636000762700209E0F0020C60F0020D40F00206C410020FC4000208341002084410020A9
:2063800081410020CB0F0020200F0020240F00207C400020280F00202C0F0020300F002092
:2063A0005C26002000410020A00F002060260020FC0D0020800E0020144100202DE9F04FC4
:2063C00097B081469948406818B18047002800F0CE80974F01200021042300247E78F8735C
:2063E000BD7808AA304614F0F3FD089800F44030B0F5403F03D17879002800F0B980304698
:206400000621F8224FF0F80814F066F806EB460407EB840080F818809DF82000702803D0B9
:206420003046702112F03AF9CDF81090069608AA2846002104234FF0000814F0C9FD9DF811
:206440002000FE2803D02846FE2112F027F928460621FE22FE2614F03FF807F1160097F8C3
:206460000190BA78059500EB8401C988019279826E4981F8008005EB4501039100EB810189
:2064800001F8026F029109EB490100EB8101B1F806B002EB420100EB810030F8061F079174
:2064A00000900EA811F00AFE0FAD1FFA8BF7172F54D35E480078002853D1ABF10706484628
:2064C00009AAB1B20BF044FBBDF8324004F11000B8420FD89DF82E0096280BD1A6EB040A63
:2064E0009DF82D2021464B461FFA8AF840460DF03FFBF0B1ABF1010B5C46A0B216282DD9E9
:206500003628A4F1160748462A4688BF2027E41BBBB2A1B214F05CFD3804EED015FA87F043
:2065200010F8010C962801D0013FF5E707EB040BBBE79DF82F00C1070ED180070CD50734EA
:20654000079E3E49A3B213FA86F00A1A4846414614F03EFD26440796D346A6E7334800781F
:2065600050B134480E990068426833489047002420B217B0BDE8F08F079F019E1021C7F580
:206580000052A7F1100083B2C1F20012304611F0B1FD264C217808430E9920702548006880
:2065A000426825489047224D00980123B5F91220697B07803046A5F814B02F8212F080FD70
:2065C000B5F91420A97B3046022312F079FD049A002A08BF1022288A7C21C0F500509042BB
:2065E000B8BF7821059F384612F058F8069E30460AF0C6FA207038460621FC22FC2413F0CD
:206600006BFF0298FE21AE70EF706F700470039805EB8000808BE880304612F03FF800203A
:206620006871E888C0F50054A2E700BF24250020A03D0020D80100100040034000200011BD
:206640002DE9F84F0446002000900CB912F056FE04F1500569462E68204608F005F908B91C
:20666000072015E1A04641F28839DFF828B2DFF828A2002469684A7A1820604301233718CA
:20668000A3401A420AD098F80E103AF81100388000211BF80420BA73F97302E040F601002E
:2066A00038800021798007F118007860387B00F0EF00387340F08000387398F80E100129B0
:2066C00016D1002C0CBF02200520397B01F0F0010843387324B915F077FB00F57A6000E006
:2066E0004846B860787B00F0F00040F0020017E0002C0CBF0221002100F0F00008433873E7
:2067000024B915F061FB00F57A6000E00020B860022C0CBF01200220797B01F0F0010843F7
:206720007873641C06F14800386106F16801032C79619FDB98F80E000024012808F1A807A0
:2067400018D108F19C0070631822314614F046FB06F118002865C5F85490397801F0F00122
:2067600041F005013970787800F0F00040F00200787000E07463B068C8F8100047480178A8
:20678000397415F095FBB064454881690978CA074CBF1F210F2182691278930748BF41F018
:2067A000200182691278530748BF41F0400182691078020748BF41F0800106F14C02117075
:2067C00054706968887C00F0030008F13E0150700B7863F3820050704978947061F3C3003E
:2067E0005070D47040F0100050703465746508F13800F06598F80E00012818BF042815D0EE
:20680000A86830B1B0F803009070A968D1F805003065E86830B1B0F80300D070E968D1F832
:20682000050070651F4801684868F06508F13000B065D07D00F0EF00D07540F08000D07505
:2068400000F0F00040F00600D0752869B0F8030000280EBF144849F64041484370661349D3
:20686000087838B15078117840F0400001F0FE01507011700E498B78507859064CBF40F001
:20688000200000F0DF005070009806F039FD0020BDE8F28F506E0210F46B0210804100201D
:2068A00000E301006C0F002000204E00880E0020C00C0020F8B58D488D4D01782A788A4206
:2068C00000F012816A68002400E0641C8C4280F208814FF4D0736343134418790028F4D115
:2068E000E0B214F067FA0121017100224271426200F161018471012200F168034A711A7187
:20690000012400221A609A6000F1900602814281047480F8392082610277C283327000F56E
:2069200092749A76227580271F739A730027FF22DF741A7600F20D131F70DF70BC46BE4643
